{
  "_format": "hh-sol-artifact-1",
  "contractName": "GiroToken",
  "sourceName": "contracts/GiroToken.sol",
  "abi": [
    {
      "inputs": [],
      "stateMutability": "nonpayable",
      "type": "constructor"
    },
    {
      "anonymous": false,
      "inputs": [
        {
          "indexed": true,
          "internalType": "address",
          "name": "owner",
          "type": "address"
        },
        {
          "indexed": true,
          "internalType": "address",
          "name": "spender",
          "type": "address"
        },
        {
          "indexed": false,
          "internalType": "uint256",
          "name": "value",
          "type": "uint256"
        }
      ],
      "name": "Approval",
      "type": "event"
    },
    {
      "anonymous": false,
      "inputs": [
        {
          "indexed": true,
          "internalType": "address",
          "name": "previousOwner",
          "type": "address"
        },
        {
          "indexed": true,
          "internalType": "address",
          "name": "newOwner",
          "type": "address"
        }
      ],
      "name": "OwnershipTransferred",
      "type": "event"
    },
    {
      "anonymous": false,
      "inputs": [
        {
          "indexed": false,
          "internalType": "address",
          "name": "account",
          "type": "address"
        }
      ],
      "name": "Paused",
      "type": "event"
    },
    {
      "anonymous": false,
      "inputs": [
        {
          "indexed": true,
          "internalType": "address",
          "name": "user",
          "type": "address"
        },
        {
          "indexed": false,
          "internalType": "uint256",
          "name": "amount",
          "type": "uint256"
        }
      ],
      "name": "RewardClaimed",
      "type": "event"
    },
    {
      "anonymous": false,
      "inputs": [
        {
          "indexed": true,
          "internalType": "address",
          "name": "user",
          "type": "address"
        },
        {
          "indexed": false,
          "internalType": "uint256",
          "name": "amount",
          "type": "uint256"
        },
        {
          "indexed": false,
          "internalType": "string",
          "name": "action",
          "type": "string"
        }
      ],
      "name": "RewardGranted",
      "type": "event"
    },
    {
      "anonymous": false,
      "inputs": [
        {
          "indexed": true,
          "internalType": "address",
          "name": "rewarder",
          "type": "address"
        }
      ],
      "name": "RewarderAdded",
      "type": "event"
    },
    {
      "anonymous": false,
      "inputs": [
        {
          "indexed": true,
          "internalType": "address",
          "name": "rewarder",
          "type": "address"
        }
      ],
      "name": "RewarderRemoved",
      "type": "event"
    },
    {
      "anonymous": false,
      "inputs": [
        {
          "indexed": true,
          "internalType": "address",
          "name": "from",
          "type": "address"
        },
        {
          "indexed": true,
          "internalType": "address",
          "name": "to",
          "type": "address"
        },
        {
          "indexed": false,
          "internalType": "uint256",
          "name": "value",
          "type": "uint256"
        }
      ],
      "name": "Transfer",
      "type": "event"
    },
    {
      "anonymous": false,
      "inputs": [
        {
          "indexed": false,
          "internalType": "address",
          "name": "account",
          "type": "address"
        }
      ],
      "name": "Unpaused",
      "type": "event"
    },
    {
      "inputs": [],
      "name": "INITIAL_SUPPLY",
      "outputs": [
        {
          "internalType": "uint256",
          "name": "",
          "type": "uint256"
        }
      ],
      "stateMutability": "view",
      "type": "function"
    },
    {
      "inputs": [],
      "name": "MAX_SUPPLY",
      "outputs": [
        {
          "internalType": "uint256",
          "name": "",
          "type": "uint256"
        }
      ],
      "stateMutability": "view",
      "type": "function"
    },
    {
      "inputs": [
        {
          "internalType": "address",
          "name": "rewarder",
          "type": "address"
        }
      ],
      "name": "addRewarder",
      "outputs": [],
      "stateMutability": "nonpayable",
      "type": "function"
    },
    {
      "inputs": [
        {
          "internalType": "address",
          "name": "owner",
          "type": "address"
        },
        {
          "internalType": "address",
          "name": "spender",
          "type": "address"
        }
      ],
      "name": "allowance",
      "outputs": [
        {
          "internalType": "uint256",
          "name": "",
          "type": "uint256"
        }
      ],
      "stateMutability": "view",
      "type": "function"
    },
    {
      "inputs": [
        {
          "internalType": "address",
          "name": "spender",
          "type": "address"
        },
        {
          "internalType": "uint256",
          "name": "amount",
          "type": "uint256"
        }
      ],
      "name": "approve",
      "outputs": [
        {
          "internalType": "bool",
          "name": "",
          "type": "bool"
        }
      ],
      "stateMutability": "nonpayable",
      "type": "function"
    },
    {
      "inputs": [
        {
          "internalType": "address",
          "name": "",
          "type": "address"
        }
      ],
      "name": "authorizedRewarders",
      "outputs": [
        {
          "internalType": "bool",
          "name": "",
          "type": "bool"
        }
      ],
      "stateMutability": "view",
      "type": "function"
    },
    {
      "inputs": [
        {
          "internalType": "address",
          "name": "account",
          "type": "address"
        }
      ],
      "name": "balanceOf",
      "outputs": [
        {
          "internalType": "uint256",
          "name": "",
          "type": "uint256"
        }
      ],
      "stateMutability": "view",
      "type": "function"
    },
    {
      "inputs": [
        {
          "internalType": "uint256",
          "name": "amount",
          "type": "uint256"
        }
      ],
      "name": "burn",
      "outputs": [],
      "stateMutability": "nonpayable",
      "type": "function"
    },
    {
      "inputs": [
        {
          "internalType": "uint256",
          "name": "amount",
          "type": "uint256"
        }
      ],
      "name": "burnPlatformFee",
      "outputs": [],
      "stateMutability": "nonpayable",
      "type": "function"
    },
    {
      "inputs": [
        {
          "internalType": "address",
          "name": "user",
          "type": "address"
        },
        {
          "internalType": "uint256",
          "name": "originalFee",
          "type": "uint256"
        }
      ],
      "name": "calculateDiscountedFee",
      "outputs": [
        {
          "internalType": "uint256",
          "name": "",
          "type": "uint256"
        }
      ],
      "stateMutability": "view",
      "type": "function"
    },
    {
      "inputs": [],
      "name": "circulatingSupply",
      "outputs": [
        {
          "internalType": "uint256",
          "name": "",
          "type": "uint256"
        }
      ],
      "stateMutability": "view",
      "type": "function"
    },
    {
      "inputs": [],
      "name": "claimRewards",
      "outputs": [],
      "stateMutability": "nonpayable",
      "type": "function"
    },
    {
      "inputs": [
        {
          "internalType": "bytes32",
          "name": "",
          "type": "bytes32"
        }
      ],
      "name": "claimedActions",
      "outputs": [
        {
          "internalType": "bool",
          "name": "",
          "type": "bool"
        }
      ],
      "stateMutability": "view",
      "type": "function"
    },
    {
      "inputs": [],
      "name": "decimals",
      "outputs": [
        {
          "internalType": "uint8",
          "name": "",
          "type": "uint8"
        }
      ],
      "stateMutability": "view",
      "type": "function"
    },
    {
      "inputs": [
        {
          "internalType": "address",
          "name": "spender",
          "type": "address"
        },
        {
          "internalType": "uint256",
          "name": "subtractedValue",
          "type": "uint256"
        }
      ],
      "name": "decreaseAllowance",
      "outputs": [
        {
          "internalType": "bool",
          "name": "",
          "type": "bool"
        }
      ],
      "stateMutability": "nonpayable",
      "type": "function"
    },
    {
      "inputs": [
        {
          "internalType": "address",
          "name": "user",
          "type": "address"
        }
      ],
      "name": "getPendingRewards",
      "outputs": [
        {
          "internalType": "uint256",
          "name": "",
          "type": "uint256"
        }
      ],
      "stateMutability": "view",
      "type": "function"
    },
    {
      "inputs": [
        {
          "internalType": "enum GiroToken.ActionType",
          "name": "action",
          "type": "uint8"
        }
      ],
      "name": "getRewardAmount",
      "outputs": [
        {
          "internalType": "uint256",
          "name": "",
          "type": "uint256"
        }
      ],
      "stateMutability": "pure",
      "type": "function"
    },
    {
      "inputs": [
        {
          "internalType": "address",
          "name": "user",
          "type": "address"
        },
        {
          "internalType": "enum GiroToken.ActionType",
          "name": "action",
          "type": "uint8"
        },
        {
          "internalType": "string",
          "name": "actionId",
          "type": "string"
        }
      ],
      "name": "grantReward",
      "outputs": [],
      "stateMutability": "nonpayable",
      "type": "function"
    },
    {
      "inputs": [
        {
          "internalType": "address",
          "name": "spender",
          "type": "address"
        },
        {
          "internalType": "uint256",
          "name": "addedValue",
          "type": "uint256"
        }
      ],
      "name": "increaseAllowance",
      "outputs": [
        {
          "internalType": "bool",
          "name": "",
          "type": "bool"
        }
      ],
      "stateMutability": "nonpayable",
      "type": "function"
    },
    {
      "inputs": [
        {
          "internalType": "address",
          "name": "user",
          "type": "address"
        },
        {
          "internalType": "string",
          "name": "actionId",
          "type": "string"
        }
      ],
      "name": "isActionClaimed",
      "outputs": [
        {
          "internalType": "bool",
          "name": "",
          "type": "bool"
        }
      ],
      "stateMutability": "view",
      "type": "function"
    },
    {
      "inputs": [],
      "name": "name",
      "outputs": [
        {
          "internalType": "string",
          "name": "",
          "type": "string"
        }
      ],
      "stateMutability": "view",
      "type": "function"
    },
    {
      "inputs": [],
      "name": "owner",
      "outputs": [
        {
          "internalType": "address",
          "name": "",
          "type": "address"
        }
      ],
      "stateMutability": "view",
      "type": "function"
    },
    {
      "inputs": [],
      "name": "pause",
      "outputs": [],
      "stateMutability": "nonpayable",
      "type": "function"
    },
    {
      "inputs": [],
      "name": "paused",
      "outputs": [
        {
          "internalType": "bool",
          "name": "",
          "type": "bool"
        }
      ],
      "stateMutability": "view",
      "type": "function"
    },
    {
      "inputs": [
        {
          "internalType": "address",
          "name": "rewarder",
          "type": "address"
        }
      ],
      "name": "removeRewarder",
      "outputs": [],
      "stateMutability": "nonpayable",
      "type": "function"
    },
    {
      "inputs": [],
      "name": "renounceOwnership",
      "outputs": [],
      "stateMutability": "nonpayable",
      "type": "function"
    },
    {
      "inputs": [],
      "name": "symbol",
      "outputs": [
        {
          "internalType": "string",
          "name": "",
          "type": "string"
        }
      ],
      "stateMutability": "view",
      "type": "function"
    },
    {
      "inputs": [],
      "name": "totalSupply",
      "outputs": [
        {
          "internalType": "uint256",
          "name": "",
          "type": "uint256"
        }
      ],
      "stateMutability": "view",
      "type": "function"
    },
    {
      "inputs": [
        {
          "internalType": "address",
          "name": "to",
          "type": "address"
        },
        {
          "internalType": "uint256",
          "name": "amount",
          "type": "uint256"
        }
      ],
      "name": "transfer",
      "outputs": [
        {
          "internalType": "bool",
          "name": "",
          "type": "bool"
        }
      ],
      "stateMutability": "nonpayable",
      "type": "function"
    },
    {
      "inputs": [
        {
          "internalType": "address",
          "name": "from",
          "type": "address"
        },
        {
          "internalType": "address",
          "name": "to",
          "type": "address"
        },
        {
          "internalType": "uint256",
          "name": "amount",
          "type": "uint256"
        }
      ],
      "name": "transferFrom",
      "outputs": [
        {
          "internalType": "bool",
          "name": "",
          "type": "bool"
        }
      ],
      "stateMutability": "nonpayable",
      "type": "function"
    },
    {
      "inputs": [
        {
          "internalType": "address",
          "name": "newOwner",
          "type": "address"
        }
      ],
      "name": "transferOwnership",
      "outputs": [],
      "stateMutability": "nonpayable",
      "type": "function"
    },
    {
      "inputs": [],
      "name": "unpause",
      "outputs": [],
      "stateMutability": "nonpayable",
      "type": "function"
    },
    {
      "inputs": [
        {
          "internalType": "address",
          "name": "",
          "type": "address"
        }
      ],
      "name": "userRewards",
      "outputs": [
        {
          "internalType": "uint256",
          "name": "",
          "type": "uint256"
        }
      ],
      "stateMutability": "view",
      "type": "function"
    }
  ],
  "bytecode": "0x60806040523480156200001157600080fd5b50604051806040016040528060048152602001634769726f60e01b815250604051806040016040528060048152602001634749524f60e01b81525081600390816200005d919062000317565b5060046200006c828262000317565b5050506200008962000083620000ce60201b60201c565b620000d2565b6005805460ff60a01b19169055620000ae336b033b2e3c9fd0803ce800000062000124565b336000908152600660205260409020805460ff191660011790556200040b565b3390565b600580546001600160a01b038381166001600160a01b0319831681179093556040519116919082907f8be0079c531659141344cd1fd0a4f28419497f9722a3daafe3b4186f6b6457e090600090a35050565b6001600160a01b038216620001805760405162461bcd60e51b815260206004820152601f60248201527f45524332303a206d696e7420746f20746865207a65726f20616464726573730060448201526064015b60405180910390fd5b6200018e60008383620001f9565b8060026000828254620001a29190620003e3565b90915550506001600160a01b038216600081815260208181526040808320805486019055518481527fddf252ad1be2c89b69c2b068fc378daa952ba7f163c4a11628f55a4df523b3ef910160405180910390a35050565b620002036200021b565b620002168383836001600160e01b038416565b505050565b6200022f600554600160a01b900460ff1690565b15620002715760405162461bcd60e51b815260206004820152601060248201526f14185d5cd8589b194e881c185d5cd95960821b604482015260640162000177565b565b634e487b7160e01b600052604160045260246000fd5b600181811c908216806200029e57607f821691505b602082108103620002bf57634e487b7160e01b600052602260045260246000fd5b50919050565b601f8211156200021657600081815260208120601f850160051c81016020861015620002ee5750805b601f850160051c820191505b818110156200030f57828155600101620002fa565b505050505050565b81516001600160401b0381111562000333576200033362000273565b6200034b8162000344845462000289565b84620002c5565b602080601f8311600181146200038357600084156200036a5750858301515b600019600386901b1c1916600185901b1785556200030f565b600085815260208120601f198616915b82811015620003b45788860151825594840194600190910190840162000393565b5085821015620003d35787850151600019600388901b60f8161c191681555b5050505050600190811b01905550565b808201808211156200040557634e487b7160e01b600052601160045260246000fd5b92915050565b611873806200041b6000396000f3fe608060405234801561001057600080fd5b50600436106101fb5760003560e01c8063715018a61161011a578063a50e060e116100ad578063dd62ed3e1161007c578063dd62ed3e14610424578063f2fde38b14610437578063f6ed20171461044a578063f8d559dd14610473578063fd0ecce21461049657600080fd5b8063a50e060e146103c8578063a9059cbb146103eb578063afefa5a1146103fe578063cb908b9d1461041157600080fd5b80638da5cb5b116100e95780638da5cb5b1461038a5780639358928b146103a557806395d89b41146103ad578063a457c2d7146103b557600080fd5b8063715018a61461035457806378ec2de51461035c5780637dd179d11461036f5780638456cb591461038257600080fd5b8063372500ab1161019257806356d3590b1161016157806356d3590b146102f35780635930224f146103065780635c975abb1461031957806370a082311461032b57600080fd5b8063372500ab146102bb57806339509351146102c55780633f4ba83a146102d857806342966c68146102e057600080fd5b806323b872dd116101ce57806323b872dd146102735780632ff2e9dc14610286578063313ce5671461029957806332cb6b0c146102a857600080fd5b80630660f1e81461020057806306fdde0314610233578063095ea7b31461024857806318160ddd1461026b575b600080fd5b61022061020e366004611482565b60076020526000908152604090205481565b6040519081526020015b60405180910390f35b61023b6104a9565b60405161022a91906114f4565b61025b610256366004611507565b61053b565b604051901515815260200161022a565b600254610220565b61025b610281366004611531565b610555565b6102206b033b2e3c9fd0803ce800000081565b6040516012815260200161022a565b6102206b204fce5e3e2502611000000081565b6102c3610579565b005b61025b6102d3366004611507565b610635565b6102c3610657565b6102c36102ee36600461156d565b610669565b6102c3610301366004611482565b610676565b6102c361031436600461156d565b6106ca565b600554600160a01b900460ff1661025b565b610220610339366004611482565b6001600160a01b031660009081526020819052604090205490565b6102c3610724565b61025b61036a366004611629565b610736565b61022061037d366004611686565b61077c565b6102c36108a2565b6005546040516001600160a01b03909116815260200161022a565b6102206108b2565b61023b6108c2565b61025b6103c3366004611507565b6108d1565b61025b6103d6366004611482565b60066020526000908152604090205460ff1681565b61025b6103f9366004611507565b61094c565b6102c361040c3660046116a1565b61095a565b6102c361041f366004611482565b610b8e565b6102206104323660046116ff565b610bdf565b6102c3610445366004611482565b610c0a565b610220610458366004611482565b6001600160a01b031660009081526007602052604090205490565b61025b61048136600461156d565b60086020526000908152604090205460ff1681565b6102206104a4366004611507565b610c80565b6060600380546104b890611732565b80601f01602080910402602001604051908101604052809291908181526020018280546104e490611732565b80156105315780601f1061050657610100808354040283529160200191610531565b820191906000526020600020905b81548152906001019060200180831161051457829003601f168201915b5050505050905090565b600033610549818585610d29565b60019150505b92915050565b600033610563858285610e4e565b61056e858585610ec8565b506001949350505050565b610581611077565b33600090815260076020526040902054806105e35760405162461bcd60e51b815260206004820152601d60248201527f4e656e68756d61207265636f6d70656e736120646973706f6e6976656c00000060448201526064015b60405180910390fd5b336000818152600760205260408120556105fd90826110c4565b60405181815233907f106f923f993c2149d49b4255ff723acafa1f2d94393f561d3eda32ae348f72419060200160405180910390a250565b6000336105498185856106488383610bdf565b6106529190611782565b610d29565b61065f61118f565b6106676111e9565b565b610673338261123e565b50565b61067e61118f565b6001600160a01b038116600081815260066020526040808220805460ff19166001179055517f9dfd431959d2d3358e3eb909555ad574123ea5881ff0e05a80f66d4984710c1b9190a250565b3360009081526006602052604090205460ff1661071a5760405162461bcd60e51b815260206004820152600e60248201526d4e616f206175746f72697a61646f60901b60448201526064016105da565b610673308261123e565b61072c61118f565b6106676000611374565b600080838360405160200161074c929190611795565b60408051808303601f1901815291815281516020928301206000908152600890925290205460ff16949350505050565b600080826006811115610791576107916117cd565b036107a55750678ac7230489e80000919050565b60018260068111156107b9576107b96117cd565b036107ce57506802b5e3af16b1880000919050565b60028260068111156107e2576107e26117cd565b036107f7575068015af1d78b58c40000919050565b600382600681111561080b5761080b6117cd565b0361081f5750674563918244f40000919050565b6004826006811115610833576108336117cd565b03610848575068056bc75e2d63100000919050565b600582600681111561085c5761085c6117cd565b036108715750680410d586a20a4c0000919050565b6006826006811115610885576108856117cd565b0361089a5750680ad78ebc5ac6200000919050565b506000919050565b6108aa61118f565b6106676113c6565b60006108bd60025490565b905090565b6060600480546104b890611732565b600033816108df8286610bdf565b90508381101561093f5760405162461bcd60e51b815260206004820152602560248201527f45524332303a2064656372656173656420616c6c6f77616e63652062656c6f77604482015264207a65726f60d81b60648201526084016105da565b61056e8286868403610d29565b600033610549818585610ec8565b610962611077565b3360009081526006602052604090205460ff166109b25760405162461bcd60e51b815260206004820152600e60248201526d4e616f206175746f72697a61646f60901b60448201526064016105da565b6001600160a01b0383166109fc5760405162461bcd60e51b8152602060048201526011602482015270456e64657265636f20696e76616c69646f60781b60448201526064016105da565b60008382604051602001610a11929190611795565b60408051601f1981840301815291815281516020928301206000818152600890935291205490915060ff1615610a895760405162461bcd60e51b815260206004820152601760248201527f5265636f6d70656e7361206a6120636f6e63656469646100000000000000000060448201526064016105da565b6000610a948461077c565b90506b204fce5e3e2502611000000081610aad60025490565b610ab79190611782565b1115610afe5760405162461bcd60e51b81526020600482015260166024820152754c696d697465206d6178696d6f206174696e6769646f60501b60448201526064016105da565b6000828152600860209081526040808320805460ff191660011790556001600160a01b0388168352600790915281208054839290610b3d908490611782565b92505081905550846001600160a01b03167f3a78c577482f67bb8ecd867f380305c99c16ab9ba0dd23becb3cbf166d5b02478285604051610b7f9291906117e3565b60405180910390a25050505050565b610b9661118f565b6001600160a01b038116600081815260066020526040808220805460ff19169055517fce699c579f0b70ea4ccd6a4b38be26726a2c248b89c7102ccbc5d0f3060ef6d09190a250565b6001600160a01b03918216600090815260016020908152604080832093909416825291909152205490565b610c1261118f565b6001600160a01b038116610c775760405162461bcd60e51b815260206004820152602660248201527f4f776e61626c653a206e6577206f776e657220697320746865207a65726f206160448201526564647265737360d01b60648201526084016105da565b61067381611374565b6001600160a01b03821660009081526020819052604081205469021e19e0c9bab24000008110610cc9576064610cb7846014611804565b610cc1919061181b565b91505061054f565b69010f0cf064dd592000008110610ce7576064610cb7846028611804565b683635c9adc5dea000008110610d04576064610cb784603c611804565b68056bc75e2d631000008110610d21576064610cb7846050611804565b509092915050565b6001600160a01b038316610d8b5760405162461bcd60e51b8152602060048201526024808201527f45524332303a20617070726f76652066726f6d20746865207a65726f206164646044820152637265737360e01b60648201526084016105da565b6001600160a01b038216610dec5760405162461bcd60e51b815260206004820152602260248201527f45524332303a20617070726f766520746f20746865207a65726f206164647265604482015261737360f01b60648201526084016105da565b6001600160a01b0383811660008181526001602090815260408083209487168084529482529182902085905590518481527f8c5be1e5ebec7d5bd14f71427d1e84f3dd0314c0f7b2291e5b200ac8c7c3b92591015b60405180910390a3505050565b6000610e5a8484610bdf565b90506000198114610ec25781811015610eb55760405162461bcd60e51b815260206004820152601d60248201527f45524332303a20696e73756666696369656e7420616c6c6f77616e636500000060448201526064016105da565b610ec28484848403610d29565b50505050565b6001600160a01b038316610f2c5760405162461bcd60e51b815260206004820152602560248201527f45524332303a207472616e736665722066726f6d20746865207a65726f206164604482015264647265737360d81b60648201526084016105da565b6001600160a01b038216610f8e5760405162461bcd60e51b815260206004820152602360248201527f45524332303a207472616e7366657220746f20746865207a65726f206164647260448201526265737360e81b60648201526084016105da565b610f99838383611409565b6001600160a01b038316600090815260208190526040902054818110156110115760405162461bcd60e51b815260206004820152602660248201527f45524332303a207472616e7366657220616d6f756e7420657863656564732062604482015265616c616e636560d01b60648201526084016105da565b6001600160a01b03848116600081815260208181526040808320878703905593871680835291849020805487019055925185815290927fddf252ad1be2c89b69c2b068fc378daa952ba7f163c4a11628f55a4df523b3ef910160405180910390a3610ec2565b600554600160a01b900460ff16156106675760405162461bcd60e51b815260206004820152601060248201526f14185d5cd8589b194e881c185d5cd95960821b60448201526064016105da565b6001600160a01b03821661111a5760405162461bcd60e51b815260206004820152601f60248201527f45524332303a206d696e7420746f20746865207a65726f20616464726573730060448201526064016105da565b61112660008383611409565b80600260008282546111389190611782565b90915550506001600160a01b038216600081815260208181526040808320805486019055518481527fddf252ad1be2c89b69c2b068fc378daa952ba7f163c4a11628f55a4df523b3ef910160405180910390a35050565b6005546001600160a01b031633146106675760405162461bcd60e51b815260206004820181905260248201527f4f776e61626c653a2063616c6c6572206973206e6f7420746865206f776e657260448201526064016105da565b6111f1611416565b6005805460ff60a01b191690557f5db9ee0a495bf2e6ff9c91a7834c1ba4fdd244a5e8aa4e537bd38aeae4b073aa335b6040516001600160a01b03909116815260200160405180910390a1565b6001600160a01b03821661129e5760405162461bcd60e51b815260206004820152602160248201527f45524332303a206275726e2066726f6d20746865207a65726f206164647265736044820152607360f81b60648201526084016105da565b6112aa82600083611409565b6001600160a01b0382166000908152602081905260409020548181101561131e5760405162461bcd60e51b815260206004820152602260248201527f45524332303a206275726e20616d6f756e7420657863656564732062616c616e604482015261636560f01b60648201526084016105da565b6001600160a01b0383166000818152602081815260408083208686039055600280548790039055518581529192917fddf252ad1be2c89b69c2b068fc378daa952ba7f163c4a11628f55a4df523b3ef9101610e41565b600580546001600160a01b038381166001600160a01b0319831681179093556040519116919082907f8be0079c531659141344cd1fd0a4f28419497f9722a3daafe3b4186f6b6457e090600090a35050565b6113ce611077565b6005805460ff60a01b1916600160a01b1790557f62e78cea01bee320cd4e420270b5ea74000d11b0c9f74754ebdbfc544b05a2586112213390565b611411611077565b505050565b600554600160a01b900460ff166106675760405162461bcd60e51b815260206004820152601460248201527314185d5cd8589b194e881b9bdd081c185d5cd95960621b60448201526064016105da565b80356001600160a01b038116811461147d57600080fd5b919050565b60006020828403121561149457600080fd5b61149d82611466565b9392505050565b60005b838110156114bf5781810151838201526020016114a7565b50506000910152565b600081518084526114e08160208601602086016114a4565b601f01601f19169290920160200192915050565b60208152600061149d60208301846114c8565b6000806040838503121561151a57600080fd5b61152383611466565b946020939093013593505050565b60008060006060848603121561154657600080fd5b61154f84611466565b925061155d60208501611466565b9150604084013590509250925092565b60006020828403121561157f57600080fd5b5035919050565b634e487b7160e01b600052604160045260246000fd5b600082601f8301126115ad57600080fd5b813567ffffffffffffffff808211156115c8576115c8611586565b604051601f8301601f19908116603f011681019082821181831017156115f0576115f0611586565b8160405283815286602085880101111561160957600080fd5b836020870160208301376000602085830101528094505050505092915050565b6000806040838503121561163c57600080fd5b61164583611466565b9150602083013567ffffffffffffffff81111561166157600080fd5b61166d8582860161159c565b9150509250929050565b80356007811061147d57600080fd5b60006020828403121561169857600080fd5b61149d82611677565b6000806000606084860312156116b657600080fd5b6116bf84611466565b92506116cd60208501611677565b9150604084013567ffffffffffffffff8111156116e957600080fd5b6116f58682870161159c565b9150509250925092565b6000806040838503121561171257600080fd5b61171b83611466565b915061172960208401611466565b90509250929050565b600181811c9082168061174657607f821691505b60208210810361176657634e487b7160e01b600052602260045260246000fd5b50919050565b634e487b7160e01b600052601160045260246000fd5b8082018082111561054f5761054f61176c565b6bffffffffffffffffffffffff198360601b168152600082516117bf8160148501602087016114a4565b919091016014019392505050565b634e487b7160e01b600052602160045260246000fd5b8281526040602082015260006117fc60408301846114c8565b949350505050565b808202811582820484141761054f5761054f61176c565b60008261183857634e487b7160e01b600052601260045260246000fd5b50049056fea2646970667358221220fe4e018a7aa4d7aee17e89cab8fa3fb2a24a7d6b264db3aebaae988d3af5d1b564736f6c63430008130033",
  "linkReferences": {},
  "deployedLinkReferences": {}
}